:020000040800F2
:10000000F80700204901000805240008B72000086F
:10001000032400084B060008B72900080000000070
:10002000000000000000000000000000092400089B
:100030004D06000800000000072400080B240008FB
:100040006301000863010008630100086301000800
:1000500063010008630100086301000863010008F0
:1000600063010008630100086301000863010008E0
:1000700063010008630100086301000863010008D0
:1000800063010008630100086301000863010008C0
:1000900063010008630100086301000863010008B0
:1000A00063010008630100086301000863010008A0
:1000B000630100086F2400087B2400086301000826
:1000C0006301000863010008630100086301000880
:1000D000630100087F29000863010008630100082C
:1000E0006301000863010008630100086301000860
:1000F0006301000863010008630100086301000850
:10010000630100086301000863010008630100083F
:10011000630100086301000863010008630100082F
:10012000630100086301000863010008630100081F
:10013000DFF810D000F068FA00480047613200088C
:10014000AFF30080F80700200648804706480047C4
:10015000FEE7FEE7FEE7FEE7FEE7FEE7FEE7FEE777
:10016000FEE7FEE76D24000831010008202A04DBC9
:10017000203A21FA02F00021704721FA02F3D04020
:10018000C2F12002914008431946704740EA01033A
:100190009B0703D009E008C9121F08C0042AFAD23D
:1001A00003E011F8013B00F8013B521EF9D2704701
:1001B000D2B201E000F8012B491EFBD270470022A9
:1001C000F6E710B513460A4604461946FFF7F0FF56
:1001D000204610BDF0B480EA0102D40F4200B2EB19
:1001E000410F02D20246084611464A0042D0C30DD2
:1001F000DDB2C1F3C752AD1A202D35DAC1F31601B5
:1002000041F4000204B15242C5F1200602FA06F19F
:100210002A411044B3EBD05F23D0C4B1012DA0EB31
:10022000C35009DCF0BC4FF0004202EAC352DBB21B
:1002300000F5000000F05DB9400000F1807000EBB7
:10024000C350A0F1807040EAD170490009E049082C
:1002500041EAC071A0EBC35000F50000400800EB7C
:10026000C350F0BC00F03CB96142012202EB4101F5
:10027000001BF6E7F0BC704781F00041AAE780F070
:100280000040A7E780EA010210B502F000434000F9
:1002900022D04A001FD0010E01EB1261C0F35600BC
:1002A000C2F3560240F4000042F40002A0FB022018
:1002B00000047F39140400D0401C50EA124001D4DD
:1002C0004000491EC2B20C0604EBD010401C40088E
:1002D000802A02D003E0002010BD20F00100002998
:1002E00000DA0020184310BD2DE9F04D81EA030427
:1002F00004F0004B21F0004514464FF0000A23F0B3
:10030000004150EA050220D054EA01021DD0C5F395
:100310000A570246C5F31303C1F31300C1F30A568B
:1003200040F4801543F48013A7EB0608101BD64653
:1003300008F2FD3873EB050002D308F1010801E073
:1003400092185B41B8F1000F03DA00200146BDE8C6
:10035000F08D00204FF48011064684460EE0171BF6
:1003600073EB050705D3121B63EB050306434CEA49
:10037000010C49084FEA300092185B4150EA01072E
:10038000EDD152EA030012D082EA040083EA0501AB
:10039000084305D0101BAB4106D20122002306E022
:1003A00000224FF0004302E06FF0010253101AEBFD
:1003B00006004CEB085110EB0A0041EB0B01BDE8C5
:1003C000F04D00F0C4B8C10F80EAE0700844CA07DD
:1003D0009623002100F08DB896230022114600F0EC
:1003E00088B80EB5C10F80EAE0700844CA07002142
:1003F00040F233438DE80E000A460B4600F0B6F893
:1004000003B000BD0EB540F2334102910021CDE9A9
:1004100000110A460B4600F0A9F803B000BD00F039
:10042000004220F00040C10DC0F3160040F400006F
:100430007F2901DA00207047962903DCC1F196017B
:10044000C84001E096398840002AF4D04042704705
:1004500020F00040C10DC0F3160040F400007F29D9
:1004600001DA00207047962903DCC1F19601C840EB
:10047000704796398840704730B5041E71F100040A
:1004800004DB4FF00044404264EB0101141E73F1A1
:10049000000405DB1C464FF00043524263EB0403AB
:1004A000994208BF904230BD01F0004330B421F0C2
:1004B000004150EA010206D00A0DA2F56072C1F3B4
:1004C0001301002A02DC30BC00207047440F44EACC
:1004D000C104C100E01830BC00EBC250AFF3008093
:1004E0000029A8BF7047401C490008BF20F0010048
:1004F000704710B4B0FA80FC00FA0CF050EA010426
:1005000004BF10BC704749B1CCF1200421FA04F4B7
:1005100011FA0CF118BF012121430843A3EB0C0190
:10052000CB1D4FEA00614FEA102042BF002010BCF3
:10053000704700EBC35010440029A4BF10BC7047A3
:10054000401C490008BF20F0010010BC704710B5E6
:10055000141E73F1000408DA401C41F100019218E6
:100560005B411A4301D120F0010010BD2DE9F04D8F
:1005700092469B4611B1B1FA81F202E0B0FA80F2E4
:100580002032904600F052F804460F4640EA0A0036
:1005900041EA0B0153465A46084313D0114653EA29
:1005A000010019D0C8F140025046FFF7DFFD0546B3
:1005B0000E4650465946424600F038F8084305D0EA
:1005C000012004E020463946BDE8F08D00200543B7
:1005D00046EAE0762C4337430A986305E40AA0EB29
:1005E00008000022FD0A44EA47540A3002D50020E0
:1005F0000146E9E7010510196941DDE908450019DF
:100600006941BDE8F04DA2E7064C074D06E0E06801
:1006100040F0010394E8070098471034AC42F6D349
:10062000FFF78AFD183A0008383A0008202A04DB50
:10063000203A00FA02F1002070479140C2F12003F5
:1006400020FA03F3194390407047FEE7704772B6F3
:10065000FEE710B590F821100022022905D00421F0
:10066000816380F82020012010BD01680B6823F011
:100670000E030B6001680B6823F001030B6090F818
:100680004030C46B012101FA03F3636080F821104C
:1006900080F82020104610BD2DE9F05F90F8211061
:1006A0000024022903D00421816301249DE0016814
:1006B0000A6822F00E020A6001680A6822F001024C
:1006C0000A608026C4F20206B215082701684FF0BE
:1006D0001C0C4FF030094FF0440A13014FF0580B37
:1006E00015024FF06C0EC4F20207C4F2020CC4F201
:1006F0000209C4F2020AC4F2020BC4F2020E4FF461
:100700008018B14232D9B94211D0614517D049455C
:1007100026D0514521D0594521D0714501D14246BD
:100720001EE04FF48166C4F20206B14201D10122FB
:1007300016E040F21C46C4F20206B14201D110227A
:100740000EE04FF48666C4F20206B14208D040F2D1
:100750004442C4F20202914201D11A4600E02A4604
:1007600040F20441C4F202010A6035E0B94216D0F9
:1007700061451CD049452BD0514526D0594526D03E
:10078000714501D1424623E0B14202D14FF080725F
:100790001EE04FF48166C4F20206B14201D101228B
:1007A00016E040F21C46C4F20206B14201D110220A
:1007B0000EE04FF48666C4F20206B14208D040F261
:1007C0004442C4F20202914201D11A4600E02A4694
:1007D0000021C4F202014A60012180F821100021A9
:1007E00080F82010416B01B188472046BDE8F09F9A
:1007F0002DE9F84F4FF48169C4F201090024A9F1F1
:10080000040B23460F2709F1040AABF1040EDEE0C6
:100810000125A5402A40AA427ED14FF0000C4E6827
:10082000C1F2110CA6EB0C0866452BD00DDC032E93
:1008300034D005DC36B3012E19D0022E2FD11BE0A7
:10084000112E16D0122E2AD119E0B8F5881F19D012
:1008500006DCB8F5803F15D0B8F5801F1FD111E038
:10086000B8F5001F0ED0B8F5041F18D10AE0CB6808
:1008700015E0CB681B1D12E0CB6808330FE0CB6896
:100880000C330CE08B682BB1012B4FF0080303D025
:10089000456104E0042302E0056100E00023FF2A33
:1008A00001D8064601E000F104064FEA840501D9AB
:1008B000A5F12005D6F8008007FA05FC28EA0C0807
:1008C00003FA05F548EA0508C6F800804D68ED0012
:1008D0007CD54FF48055C4F20205AE6946F001069E
:1008E000AE61AD6924F0030606F1804605F001050E
:1008F00006F580360095B5684FEA847C4FEA1C7C8B
:1009000007FA0CF825EA0805A0F18048B8F5843804
:100910002AD0A0F1804800E058E0B8F5863826D00B
:10092000A0F18048B8F5883824D0A0F18048B8F507
:100930008A3822D0A0F18048B8F58C3820D0A0F1B8
:100940008048B8F58E381ED04FF0060808FA0CF82B
:1009500048EA0508C6F808804D684E46ED02D9F809
:10096000005013D5154312E04FF00008EEE74FF0AA
:100970000108EBE74FF00208E8E74FF00308E5E76E
:100980004FF00408E2E74FF00508DFE795433560D4
:100990004D68DAF80060AD02554601D5164300E017
:1009A00096432E604D68DBF80060AD035D4601D5CF
:1009B000164300E096432E604D68DEF80060ED03BC
:1009C000754601D5164300E096432E60641C0A6804
:1009D00032FA04F57FF41CAFBDE8F88F0AB101616B
:1009E00070470904FBE740F22C00C2F20000806867
:1009F000704770B504002ED094F83D00002520B952
:100A000084F83C50204600F0BEF8242084F83D00D5
:100A10002068016821F0010101602068016841F44B
:100A2000004101602068016821F40041016000F08C
:100A30001EFA48F2A0626168C0F20102914204D835
:100A400048F28041C0F21E0103E04FF41061C0F291
:100A50003D01884201D2012070BD44F24021C0F224
:100A60000F01B0FBF1F123685E6826F03F060E43EC
:100A70005E606368934206D94FF4967359434FF40E
:100A80007A73B1FBF3F12368491C1E6A26F03F0616
:100A9000314319626168914210D84900401EB0FB91
:100AA000F1F2521CC2F30B02042A01D2042022E00C
:100AB000B0FBF1F0401CC0F30B001CE0A268F2B3E5
:100AC00001EBC10303EB0116431EB3FBF6F35B1C02
:100AD00043F480431B054BD092B301EBC10202EB00
:100AE0000111401EB0FBF1F0401CC0F30B0040F4BC
:100AF000804040F400402168CA6922F0FF0222F4DD
:100B00004F421043C861D4E90710014320680268CE
:100B100022F0C00211430160D4E9031008432168A8
:100B20008A6822F0FF0222F4034210438860D4E96D
:100B3000050108432168CA6822F0FF0201E010E0C5
:100B400018E01043C8602068016841F001010160AD
:100B50002564202084F83D00256384F83E50002061
:100B600070BD01EB4106431EB3FBF6F35B1CB1E71E
:100B70000120C0E701EB4101401EB0FBF1F0401C39
:100B8000C0F30B00B5E710B586B0002100910191CC
:100B9000029103910068A0F18041B1F5A84120D1F4
:100BA0004FF48054C4F20204A06940F00800A06130
:100BB000A069694600F008000490C020009012204F
:100BC0000190032003904FF44060C4F20100FFF74E
:100BD0000FFEE06940F40010E061E06900F40010ED
:100BE000049006B010BD40F22C00C2F200008168F3
:100BF00002781144816070474FF4005010B5C4F280
:100C00000200016841F010010160032000F082F849
:100C10000F2000F004F800F023F8002010BD70B59C
:100C2000044640F22C05C2F2000528784FF47A7190
:100C3000B1FBF0F040F23801C2F200010968B1FBEB
:100C4000F0F000F0FEFA48B9102C07D2002221463D
:100C5000501E00F03EF800206C6070BD012070BD99
:100C60004FF4805008B5C4F20200816941F00101DF
:100C70008161816901F001010091C16941F08051F8
:100C8000C161C06900F0805000900020C4F20100F2
:100C9000416821F0E06141F00071416008BD002829
:100CA00009DB00F01F02012191404009800000F1A2
:100CB000E020C0F880127047002809DB00F01F0216
:100CC000012191404009800000F1E020C0F80011AE
:100CD0007047F0B44EF60C53CEF200031B680C467E
:100CE000C3F30223C3F10705042D00D90425191D00
:100CF000072901D2002300E0DB1E012606FA05F1D8
:100D0000491E214099409E40761E16403143F0BC5A
:100D100001F052BE4EF60C52CEF2000200F0070176
:100D200010684FF6FF03184040EA012040F0FD70C4
:100D300040F08060106070472DE9F0470F460500D5
:100D400067D04FF40056C4F20206306800F0070086
:100D5000B84209D2306820F007003843306030686C
:100D600000F00700B84254D128684FF4805481073E
:100D7000C4F2020412D5400703D5606840F4E06075
:100D800060602878000703D5606840F460506060B8
:100D90006068A96820F0F000084360602878C00708
:100DA00028D06868012810D02168022810D089074F
:100DB00000292EDA616821F0030101436160FFF729
:100DC00012FE804641F288390DE021688903EFE781
:100DD0008901EDE7FFF707FEA0EB0801494502D9BD
:100DE0000320BDE8F0876068696800F00C00B0EB94
:100DF000810FEFD1306800F00700B8420BD930689E
:100E000020F0070038433060306800F00700B84237
:100E100001D00120E5E72878400705D56068E9683A
:100E200020F4E060084360602878000706D5606819
:100E3000296920F4605040EAC100606000F03DF88C
:100E40006168C1F3031143F60002C0F60002515C71
:100E5000C84040F23801C2F20001086040F23000A0
:100E6000C2F200000068FFF7DAFE0020B9E740F2A6
:100E70003800C2F200004FF48051C4F20201006851
:100E80004968C1F3022143F61002C0F60002515C2A
:100E9000C840704740F23800C2F200004FF4805161
:100EA000C4F2020100684968C1F3C22143F610028E
:100EB000C0F60002515CC84070474FF48052C4F243
:100EC000020251684FF4905001F00C03C0F27A0016
:100ED000042B19D0082B17D143F2F070C0F6000094
:100EE000C1F38343C903C05C0FD55168C1F34041CE
:100EF00043F2EE72C0F60002515C4FF49052C0F221
:100F00007A025043B0FBF1F070474FF41061C0F229
:100F10003D014843704700002DE9F84F040075D0AB
:100F200020784FF48055C007C4F2020548D06868A5
:100F3000C0F38100012807D06868C0F3810002284F
:100F400009D16868C00306D52868800338D5606871
:100F50000028E4D034E06068B0F5803F0BD010B1D9
:100F6000B0F5A02F11D0286820F4803028602868C0
:100F700020F4802002E0286840F480302860606817
:100F800088B1FFF730FD064609E0286840F480206C
:100F90002860F0E7FFF727FD801B64287ED82868CB
:100FA0008003F7D50CE0FFF71EFD064605E000BF05
:100FB000FFF719FD801B6428F0D828688003F7D458
:100FC00020784FF0000680074FF001094FF000082D
:100FD000C4F242263AD5686810F00C0F07D0686852
:100FE000C0F38100022809D16868C00306D42868CC
:100FF000800715D52069012808D111E02069B8B112
:10100000C6F80090FFF7EFFC074606E015E100BFC9
:10101000FFF7E9FCC01B0228C0D828688007F7D575
:101020002868616920F0F80040EAC10028600DE0FE
:10103000C6F80080FFF7D7FC074604E0FFF7D3FCB3
:10104000C01B02282AD828688007F7D42078000718
:1010500034D54FF49060A169C4F24220F9B1C0F8D0
:101060000090FFF7C0FC074605E000BFFFF7BBFCA0
:10107000C01B022812D8686A8007F7D540F23800F2
:10108000C2F2000000684FF4FA51B0FBF1F000909A
:1010900000BF0098411E0091FAD20FE083E0C0F833
:1010A0000080FFF7A0FC074605E000BFFFF79BFCB0
:1010B000C01B022877D8686A8007F7D420784007D9
:1010C00062D5E8690027C00008D4E86940F0805084
:1010D000E861E869012700F0805000904FF4E0409B
:1010E000C4F200000168C90512D40168834641F4C6
:1010F00080710160FFF777FC824605E0FFF773FC23
:10110000A0EB0A0064284ED8DBF80000C005F5D536
:10111000E06801280AD008B1052813D0286A20F019
:1011200001002862286A20F0040002E0286A40F0EA
:1011300001002862E06841F2883B98B1FFF753FC58
:1011400082460BE0286A40F004002862EEE700BF08
:10115000FFF749FCA0EB0A0159455AD8286A8007D5
:10116000F6D50CE0FFF73FFC824605E0FFF73BFCBD
:10117000A0EB0A0159454CD8286A8007F6D41FB164
:10118000E86920F08050E861E06988B36968C1F3DC
:101190008101022944D00228C6F8608004D0FFF7FC
:1011A00022FC044638E034E0FFF71DFC074604E06B
:1011B000FFF719FCC01B02282BD828688001F7D440
:1011C000206AB0F5803F05D16868A16820F400303E
:1011D00008436860D4E908010843696821F4741180
:1011E00008436860C6F86090FFF7FDFB044606E020
:1011F00025E000BFFFF7F7FB001B022809D828688D
:101200008001F7D51BE000BFFFF7EDFB001B0228B4
:1012100002D90320BDE8F88F28688001F4D40EE0DD
:101220000128F7D06868226A00F48031914204D125
:10123000616A00F47010884201D00120EAE70020C2
:10124000E8E710B5401EB0F1807F01D3012010BD4A
:101250004FF0E02460610F21601701F0ADFB00202A
:10126000A06107202061002010BD7047704770B555
:1012700090F83C20012A36D0012480F83C4002221C
:1012800080F83D2003685A689D6822F070060A685D
:1012900032435A600268A2F18043B3F5963316D008
:1012A000A2F18043B3F59A3311D0B2F1804F0ED042
:1012B000A2F18043B3F5806309D0A2F18043B3F576
:1012C000006304D0A2F18043B3F5406304D14968C0
:1012D00025F080031943916080F83D40002180F89B
:1012E0003C10084670BD022070BD10B5040003D04C
:1012F00094F83D0010B107E0012010BD002084F8F3
:101300003C00204600F01EF8022084F83D00211D1C
:10131000206801F0B8F8012084F8460084F83E0007
:1013200084F83F0084F8400084F8410084F84200CB
:1013300084F8430084F8440084F8450084F83D00B4
:10134000002010BD08B501684FF48050C4F20200BF
:10135000B1F1804F29D0A1F18042B2F5806215D061
:10136000A1F18042B2F5006227D1C16941F00401C8
:10137000C161C069012100F0040000901E20FFF748
:10138000A8FC1E20BDE80840FFF796BCC16941F0EB
:101390000201C161C069002200F002000090114604
:1013A0001D20FFF796FC1D20ECE7C16941F001010B
:1013B000C161C06900F00100009008BD90F83D10C7
:1013C000012901D001207047022180F83D100168F9
:1013D000CA6842F00102CA600068A0F18041B1F51C
:1013E000963116D0A0F18041B1F59A3111D0B0F10B
:1013F000804F0ED0A0F18041B1F5806109D0A0F1FD
:101400008041B1F5006104D0A0F18041B1F54061A7
:1014100004D1816801F00701062903D0016841F079
:1014200001010160002070470168CA6822F00102D2
:10143000CA6001680A6A41F211131A4207D10A6AA6
:101440009B101A4203D10A6822F001020A600121AE
:1014500080F83D100020704770B5044690F83C00BD
:101460000025012817D0012684F83C60022084F86A
:101470003D002068826822F0770222F47F42826079
:101480000868502838D00DDC20284FD005DC90B3F8
:10149000102811D14AE0022070BD302846D04028E3
:1014A0000AD13BE060282FD070280DD0B0F5805FC6
:1014B00003D0B0F5005F12D0012584F83D60002014
:1014C00084F83C00284670BDCB68D1E90121206832
:1014D00001F031F82068816841F0770109E0CB68BC
:1014E000D1E90121206801F026F82068816841F4E3
:1014F00080418160E1E719E0CA684968206801F02D
:10150000F2F85021206806E0CA684968206801F0B6
:10151000FBF86021206801F018F8CEE7CA68496836
:10152000206801F0E0F840212068F4E722680146D5
:101530001046F0E72DE9F0410D46040003D094F881
:101540003D0018B108E00120BDE8F081002084F8DA
:101550003C00204600F043F8022084F83D0020685B
:10156000816821F0070121F480418160211D2068FC
:1015700000F089FF206883688269066A2968AF697C
:10158000194322F0030323F4407343EA0723AA68B4
:10159000EF691A4322F0FC0222F47C42EB6842EA33
:1015A000072213432A692F6A120142EA07321A43BB
:1015B0006B686D6926F0220646EA05152B438160AB
:1015C0002068826154F8460B0362012004F81F0969
:1015D000E0752076E0762077A0750020B4E700B5AE
:1015E00085B0002100910191029103910068A0F162
:1015F0008041B1F5963126D14FF48050C4F20200FB
:10160000816941F400618161816901F400610491A3
:10161000816941F0400181618069694600F04000C4
:1016200004904FF4206000904FF4C050C4F20100C9
:10163000FFF7DEF80020C4F20100416841F0C0016C
:1016400041F0E061416005B000BD70B590F83E60CA
:10165000044690F83F5090F8423090F84320022022
:1016600021B104290ED0012E1BD114E0012E18D176
:10167000012B16D184F83E0084F84200012200219B
:10168000206820E0012D0CD1012A0AD184F83F0006
:1016900084F8430014E0012D03D1012B01D1012A6C
:1016A00001D0012070BD84F83E0084F83F0084F82A
:1016B000420084F8430001220021206800F02EFF40
:1016C00001220421206800F029FF2068016841F010
:1016D00001010160002070BD704770B504460068CC
:1016E00001694FF00005C943890715D4C168C94392
:1016F000890711D4E91E01610120207720688069E3
:101700008007204602D0FFF7E7FF04E000F0BDF8B5
:10171000204600F04FF9257720680169C943490741
:1017200017D4C168C943490713D46FF0040101619C
:10173000022020772068806910F4407F204602D084
:10174000FFF7CAFF04E000F0A0F8204600F032F9ED
:10175000257720680169C943090716D4C168C943C0
:10176000090712D46FF00801016104202077206876
:10177000C0698007204602D0FFF7AEFF04E000F00A
:1017800084F8204600F016F9257720680169C943DE
:10179000C90617D4C168C943C90613D46FF0100134
:1017A0000161082020772068C06910F4407F20463E
:1017B00002D0FFF791FF04E000F067F8204600F048
:1017C000F9F8257720680169C943C90708D1C168BC
:1017D000C943C90704D1891E0161204600F047F9B9
:1017E00020680169C943090609D4C168C9430906CB
:1017F00005D46FF0800101612046FFF736FD2068B7
:101800000169C943490609D4C168C943490605D4D9
:101810006FF040010161204600F0F9F9206801698C
:10182000C94389060BD4C168C943890607D46FF040
:10183000200101612046BDE87040FFF717BD70BD73
:1018400000B585B0002100910191029103910068DB
:10185000B0F1804F17D14FF48050C4F2020081697B
:1018600041F0040181618069694600F00400049040
:10187000012000900220019003904FF40060C4F218
:101880000100FEF7B5FF05B000BD704770B5044616
:1018900090F83C0000260D4601280FD0012084F866
:1018A0003C006AB1042A1DD0082A2FD00C2A3FD050
:1018B0000126002084F83C00304670BD022070BD37
:1018C000206800F04AFE2068816941F008018161CA
:1018D0002068816921F004018161206881692A6999
:1018E000114311E0206800F06AFE2068816941F42C
:1018F000006181612068816921F4806181612068D3
:1019000081692A6941EA02218161D2E7206800F0F9
:101910008DFE2068C16941F00801C1612068C1697C
:1019200021F00401C1612068C1692A69114311E0F5
:10193000206800F0B1FE2068C16941F40061C16116
:101940002068C16921F48061C1612068C1692A6988
:1019500041EA0221C161ACE710B5040003D094F85C
:101960003D0010B107E0012010BD002084F83C00CC
:10197000204600F01EF8022084F83D00211D20685A
:1019800000F081FD012084F8460084F83E0084F8D0
:101990003F0084F8400084F8410084F8420084F855
:1019A000430084F8440084F8450084F83D0000209A
:1019B00010BD7047704710B50446022249B1042992
:1019C0000ED0082913D094F84100012816D0012028
:1019D00010BD94F83E000128F9D184F83E200FE0B4
:1019E00094F83F000128F2D184F83F2008E094F8F1
:1019F00040000128EBD184F8402001E084F8412028
:101A00000122206800F08AFD4FF430512068C4F2B2
:101A100001014FF45052C4F20102884201D09042B9
:101A200003D1436C43F4004343642068884213D0DD
:101A3000904211D0B0F1804F0ED0A0F18041B1F5AD
:101A4000806109D0A0F18041B1F5006104D0A0F11E
:101A50008041B1F5406104D1816801F00701062998
:101A600003D0016841F001010160002010BD2DE9A3
:101A7000F05F044640F24420C2F20000844201D1EB
:101A800001F08CFC40F2FC10C2F2000084427ED1D6
:101A900040F20004C2F20004208A4FF40066401CA9
:101AA000208220784FF0000AC4F2010640F26C1741
:101AB000C2F2000700286BD0A088FEF7A3FC002329
:101AC00021F000410022C4F25403FEF7D5FC06D2F7
:101AD000A08808B1502001E06FF04F00A080386866
:101AE000BB46406A00B2FEF77CFC46F266634FF0EC
:101AF0006632C4F21A03FEF7F7FBFEF7D5FC054683
:101B00002062A088FEF768FC2946FEF7B5FBFEF7C9
:101B100086FC05B26581B4F90C70B4F90E107842F8
:101B200005EB40000844FEF74EFCE169FEF7AAFB16
:101B300081462846FEF747FCA169FEF7A3FB8046D5
:101B4000E81BFEF740FC6169FEF79CFB4146FEF78F
:101B500041FB4946FEF73EFB8046B4F90600FEF71E
:101B600032FC4146FEF736FBFEF759FC00B2E0803E
:101B7000E781A5810028014600DA494289B24FF485
:101B8000A5722181914200D91146218101E01EE018
:101B90001FE0002806DD012202213046FEF71EFF6D
:101BA000002205E0002202213046FEF717FF012245
:101BB00020213046FEF712FF218940F2B410C2F214
:101BC000000000684163DBF80010C1F824A0BDE804
:101BD000F09FA4F80AA0A4F806A0A4F80EA0A4F808
:101BE0000CA05546002202213046C4F820A0FEF782
:101BF000F5FE002220213046FEF7F0FE40F2B41040
:101C0000C2F200000068456338684562DFE770474C
:101C100070477047F8B5016804460868CA684B69A0
:101C200010F00F0F4FF000055CD003F0010602F436
:101C30009077374369D0C10705D0D10503D5616CD2
:101C400041F001016164410705D5D90703D0616CFA
:101C500041F002016164810705D5D90703D0616CA9
:101C600041F004016164010707D502F0200131430E
:101C700003D0616C41F008016164616C00293DD0C2
:101C8000800604D5900602D5204600F07EFD20682F
:101C90004069616CC0F38010090700D478B3204616
:101CA00000F04CFD20684069400624D520681430BF
:101CB00050E8001F21F0400140E80012002AF5D151
:101CC000E06BC0B142F22D71C0F600014163E06BE0
:101CD000FEF7E2FC002811D0E06B416B01B0BDE8DB
:101CE000F0400847830610D593060ED52046BDE880
:101CF000F84000F04ABD2046FFF78BFFF8BDFFE734
:101D00002046FFF786FF6564F8E7266B2023012E47
:101D10007CD1C6067AD5D60678D508684868009082
:101D200048694FF00206400640D5E16B08684068FC
:101D30000004000CE2D0A28D8242DFD9E0858869E0
:101D400020282DD020680C3050E8001F21F480712D
:101D500040E80012002AF5D12068143050E8001F36
:101D600021F0010140E80012002AF5D1206814306A
:101D700050E8001F21F0400140E80012002AF5D190
:101D800084F84230256320680C3050E8001F21F0B1
:101D9000100140E80012002AF5D1E06BFEF759FC73
:101DA0006663A08DE18D401A81B22AE0A08DE18D9D
:101DB000401A81B2E08D0028A0D000299ED0226870
:101DC0000C3252E8000F20F4907042E80007002F18
:101DD000F5D12068143050E8002F22F0010240E8CD
:101DE0000027002FF5D184F84230256320680C309D
:101DF00050E8002F22F0100240E80023002BF5D11C
:101E000066632046FFF704FF78E7FFE705062BD55A
:101E1000150629D594F841002128F5D1A068B0F520
:101E2000805F01D12069B0B1206A411C2162216824
:101E300000784860E08C401E0004000CE084E3D190
:101E40002068C16821F08001C1602068C16841F04C
:101E50004001C16052E7206A0088C0F30800486072
:101E6000206A801C2062E5E74006CDD55006CBD520
:101E7000CA68204622F04002CA6084F8413000F06F
:101E800019F93BE770B5040004D094F8410000252F
:101E900010B106E0012070BD84F84050204600F0EB
:101EA00023F8242084F841002068C16821F40051FF
:101EB000C160204600F0CAFC2068016921F490410D
:101EC00001612068416921F02A0141612068C168EF
:101ED00041F40051C1606564202084F8410084F819
:101EE00042006563002070BD30B585B000240094C9
:101EF0000194029403940068A0F18041B1F59C31F3
:101F000032D14FF48050C4F20200816941F4804123
:101F10008161816901F480410491816941F004018A
:101F2000816180694FF4006500F0040004904FF473
:101F300000700090022001900320C4F2010503907C
:101F400069462846FEF754FC2815CDE90004694689
:101F500028460294FEF74CFC002211462520FEF78D
:101F6000B8FE2520FEF7A8FE05B030BD2DE9F843E8
:101F7000044690F84200994616460D46202802D0A5
:101F80000220BDE8F883ADB1A6B100206064222133
:101F900084F842102063FEF726FDA6858046E6857C
:101FA000A0684FF48057B84201D1206920B12E4675
:101FB000002526E00120E4E7002622E04346002237
:101FC00020212046CDF8009000F09DFC08B10320B0
:101FD000D7E726B1A068B8421BD038B108E0206826
:101FE0004068C0F3080025F8020B07E0206980B1C3
:101FF0002068406800F07F0006F8010BE08D401E6D
:10200000E085E08D0028D9D1202084F8420000200E
:10201000B7E720684068EFE770472DE9F8430446CA
:1020200090F841001F4616460D46202802D0022097
:10203000BDE8F8837DB176B100206064212084F88A
:102040004100FEF7D0FCA6848046E684A068B0F587
:10205000805F02D003E00120EAE7206910B12E463C
:1020600000250EE000260CE08021204600F04BFC0D
:10207000A0B9AEB116F8010B21684860E08C401E93
:10208000E084E08C43464FF0000200970028EBD13B
:102090004FF04001204600F036FC30B10320C7E786
:1020A00035F8020BC0F30800E6E7202084F8410071
:1020B0000020BDE77047FEE72DE9F04186B000241F
:1020C0004FF48050C4F202000094019402940394EF
:1020D000816941F004018161816901F00401049189
:1020E000816941F040018161816901F04001049101
:1020F000816941F020018161816901F02001049131
:10210000816941F00801816180694FF4006700F046
:102110000800C4F201070490002222213846FEF78D
:102120005DFC4FF4A058C4F2010800228021404613
:10213000FEF754FC222001250226CDE90005CDE959
:10214000024669463846FEF753FB8020CDE900057C
:10215000CDE9024669464046FEF74AFB06B0BDE8B7
:10216000F08110B54FF4A841C4F2000140F21810FC
:10217000C2F20000016048F2A061C0F201014160BA
:1021800000214FF480428160C0E903124161816106
:10219000C1610162FEF72DFC002803D0BDE81040AC
:1021A000FEF755BA10BD10B58CB024216846FEF775
:1021B00006F800244FF430510994C4F2010140F2B2
:1021C0006C10C2F200000A94C0E900144FF6FF71CF
:1021D000C0E902410461446184610320CDE9000447
:1021E0000120CDE902040494CDE905400794694635
:1021F00040F26C10C2F200000894FFF79BF908B19E
:10220000FEF725FA099409A940F26C10C2F2000009
:102210000A94FFF72CF8002801D0FEF718FA0CB04A
:1022200010BD10B58EB000240794089409940A9448
:102230000B941C2168460C94FDF7C1FF4FF08041C0
:1022400040F2B410C2F2000001604721C0E901145D
:1022500040F2F311C0E903148461FFF746F808B1B6
:10226000FEF7F5F94FF4805007A9079040F2B4103B
:10227000C2F20000FFF7F0F808B1FEF7E8F940F20B
:10228000B410C2F20000FFF767FB08B1FEF7DFF9F8
:102290000B940BA940F2B410C2F200000C94FEF7AC
:1022A000E6FF08B1FEF7D3F96020CDE900040294FF
:1022B0000022694640F2B410C2F200000494FFF715
:1022C000E5FA08B1FEF7C3F940F2B410C2F200001B
:1022D000FFF7B6FA0EB010BD10B586B000244FF46B
:1022E000806100940194029403940494C4F2000168
:1022F00040F2FC10C2F200000594016041F61F415B
:10230000C0E9011440F2E731C0E903148461FEF72B
:10231000ECFF08B1FEF79BF94FF48050694600903E
:1023200040F2FC10C2F20000FFF796F808B1FEF789
:102330008EF9049404A940F2FC10C2F20000059446
:10234000FEF795FF002801D0FEF781F906B010BD19
:1023500010B586B000244FF40061009401940294FB
:1023600003940494C4F2000140F24420C2F200003D
:10237000059401604721C0E901144FF4E161C0E90F
:1023800003148461FEF7B1FF08B1FEF760F94FF462
:1023900080506946009040F24420C2F20000FFF7EE
:1023A0005BF808B1FEF753F9049404A940F2442005
:1023B000C2F200000594FEF75AFF002801D0FEF794
:1023C00046F906B010BD10B54FF46051C4F20101DA
:1023D00040F28C20C2F2000001604FF4E131416014
:1023E000002181600C22C160C0E904128161C161D9
:1023F000FFF748FD002803D0BDE81040FEF727B9DD
:1024000010BDFEE7FEE770477047FEF7ECBB30B546
:102410008FB028216846FDF7D2FE14210AA8FDF7E7
:10242000CEFE01210804CDE900100024029402250B
:102430000491CDE907504FF4E01009906846FEF78B
:102440006BFD08B172B6FEE70F20CDE90A054FF427
:102450008060CDE90C4002210AA80E94FEF76CFCC6
:10246000002801D072B6FEE70FB030BD704740F2D1
:10247000FC10C2F20000FFF730B940F24420C2F273
:102480000000FFF72AB9F0B502684FF43053C4F2E8
:1024900001034FF480654FF400664FF440674FF43A
:1024A00050544FF0804CC4F20005C4F20006C4F250
:1024B0000007C4F20104984209D0A04207D0604549
:1024C00005D0A84203D0B04201D0B84204D122F0D6
:1024D000700E4A6842EA0E02984209D0A04207D024
:1024E000604505D0A84203D0B04201D0B84203D124
:1024F00022F44075CA682A434D6922F080022A43BB
:1025000002608A68C2620A688262984201D0A04270
:1025100001D10969016301214161F0BD10B501F0EC
:102520001F030121046A99408C430462016A9A40A6
:102530001143016210BD10B5846842EA032224F4FD
:102540007F440A432243826010BD826822F07002F9
:102550000A4342F0070181607047F0B5036A026ADE
:1025600022F001020262426884694FF4505624F05E
:1025700073050C68C4F201062C4323F002058B6836
:102580002B434FF43055C4F20105A84201D0B042AC
:1025900005D123F00807CB683B4323F00403A8428E
:1025A00001D0B04205D14D6922F4407215438A69C9
:1025B0002A4342608461496841630362F0BDF0B51B
:1025C000026A036A23F010030362436884690D689A
:1025D00024F4E64444EA05248D6822F0200242EA0D
:1025E00005124FF43055C4F201054FF45056C4F2B1
:1025F0000106A84201D0B04206D1CF6822F0800285
:1026000042EA071222F04002A84201D0B04207D1AC
:102610004D6923F4406343EA85038D6943EA8503EA
:1026200043608461496881630262F0BDF0B5026A6B
:10263000036A23F4807303624368C46922F400725E
:1026400024F073050C684FF450562C438D68C4F287
:10265000010642EA05224FF43055C4F20105A842B2
:1026600001D0B04206D1CF6822F4006242EA0722CC
:1026700022F48062A84201D0B04207D14D6923F410
:10268000405343EA05138D6943EA05134360C4616F
:102690004968C1630262F0BD30B5046A026A22F47F
:1026A000805202624268C3690D6823F4E64343EA3C
:1026B00005238D6824F4005444EA0534A0F18045D4
:1026C000B5F5963504D0A0F18045B5F59A3504D11D
:1026D0004D6922F4804242EA85124260C361496832
:1026E0000164046230BD10B5036A046A24F0010479
:1026F0000462846924F0F00444EA021423F00A021C
:102700000A438461026210BD10B5036A046A24F0B2
:1027100010040462846923F0A00324F4704444EAA2
:10272000023243EA01118261016210BD10B5406AB4
:102730000021C185C184FFF76CFA10BD01680C311E
:1027400051E8002F22F4907241E80023002BF5D1CC
:102750000168143151E8002F22F0010241E8002302
:10276000002BF5D1016B012909D101680C3151E829
:10277000002F22F0100241E80023002BF5D1202188
:1027800080F8421000210163704708B590F84210AC
:10279000222901D0022008BD82684FF480539A425A
:1027A00001D1016921B1816A9A421BD04AB10AE084
:1027B0000268816A5268C2F308020A80816A891C31
:1027C00008E0026972B10268526802F07F020A7082
:1027D000816A491C8162C18D491E0904090CC185A9
:1027E00003D01BE002685268F1E70168CA6822F072
:1027F0002002CA600168CA6822F48072CA60016857
:102800004A6922F001024A61202180F84210002129
:102810004163026B012A03D0FFF7FEFB002008BDD5
:10282000016301680C3151E8002F22F0100241E8E9
:102830000023002BF5D101680A68D20602D50A6888
:1028400049680091818DFFF7E3F9E7E770B5044629
:1028500000680169E26821F4405111430161216976
:10286000A0680843616908432168CA6822F40372BA
:1028700022F4A0520243CA6020684169A26921F48F
:102880004071114341612068A0F18041B1F59C3154
:1028900036D0FEF7ECFA00BF00EBC00101EB0012EE
:1028A000606864218000B2FBF0F3B3FBF1F36FF0DA
:1028B00018067343B2FBF0F5B2FBF0F605EB8305A7
:1028C000322303EB0515B5FBF1F5B6FBF1F605F088
:1028D000F00505EB0615B2FBF0F6B2FBF0F0B0FB2D
:1028E000F1F06FF01802504306EB800003EB00108C
:1028F000B0FBF1F0216800F00F002844886070BD43
:10290000FEF7C8FAC8E72DE9F041984617460E468B
:102910000446069D27E0681C25D02DB1FEF763F81C
:10292000A0EB0800A8421ED920680C3050E8001F18
:1029300021F4D07140E80012002AF5D1206814304B
:1029400050E8001F21F0010140E80012002AF5D1F3
:10295000202084F8410084F84200002084F84000E0
:102960000320BDE8F0812068006836EA000004D04A
:102970000020B842CFD00020F3E70120F9E710B5DE
:1029800040F28C24C2F200042068C068800601D5A1
:1029900000F00AFD2068C068000601D500F00AFDBD
:1029A0002520FEF77CF940F28C20C2F20000BDE841
:1029B0001040FFF72FB9FEE70907090E002804DBD6
:1029C00000F1E02080F80014704700F00F0000F1E3
:1029D000E02080F8141D704702E008C8121F08C1EB
:1029E000002AFAD170477047002001E001C1121F90
:1029F000002AFBD1704770B5084600241546012116
:102A000081F310880A2140F24C02C2F20002D17018
:102A10000722294600F054FE012805D144F6206023
:102A200000F05FFE012800D00324002080F310880E
:102A3000204670BD2DE9F041074600251646884620
:102A4000012080F3108840F24C04C2F20004A088F8
:102A5000FF2801D9AFF30080A088032804D3A18800
:102A6000A06800F08FFC30B10525002080F31088AD
:102A70002846BDE8F081A06810F8011B3970A188D4
:102A8000891E3180C8F80000EFE770B503460025C5
:102A9000012080F3108840F24C04C2F200046078F8
:102AA00028B10525002080F31088284670BD491EF6
:102AB0000126E1600846E6800B70E1881144E18060
:102AC000E18800F05FFC0146E088A2680244401CF7
:102AD000E080117026700121002000F087FCE1E702
:102AE00010B5012080F31088002100F07FFC002049
:102AF00040F24C01C2F20001487080F31088BDE83A
:102B0000104000F0C5BD10B5012080F310880021F1
:102B1000084600F06BFC00F097FC002080F3108862
:102B200010BD70B5002440F25C05C2F200052878A3
:102B3000012802D00624204670BD28698047002065
:102B40002870F8E770B50C460988002505292FD1B3
:102B5000417840F2CF760A0281781143C278491C4D
:102B60001302027989B21A43531EB34220D20023C2
:102B70002380012300F8013B2688761C2680560717
:102B800003D003EBD203DEB201E0C2F3C70600F8C4
:102B9000016B23885B1C2380002300F022FB18B10B
:102BA00000F0D6FB054604E020883044208000E099
:102BB0000325284670BD70B50C46098800250529F7
:102BC0002FD1417840F2CF760A0281781143C27842
:102BD000491C1302027989B21A43531EB34220D210
:102BE00000232380022300F8013B23885B1C238001
:102BF000530704D0012303EBD203DEB201E0C2F39A
:102C0000C70600F8016B23885B1C238000F0EBFAF9
:102C100018B100F09DFB054604E020883044208078
:102C200000E00325284670BD70B50C4609880026D3
:102C3000052925D1417805790A0281781143491C7B
:102C40006A1E89B27C2A1BD800222280032200F847
:102C5000012B22880023521C22806A0000F8012BDD
:102C60002288521C22802A4600F0C0FA18B100F0D7
:102C70006FFB064605E0208800EB4500208000E061
:102C80000326304670BD70B50C460988002605291C
:102C900027D1417805790A0281781143C278491C0D
:102CA00045EA02256A1E89B27C2A1AD200222280B5
:102CB000042200F8012B2288521C22806A0000F8AE
:102CC000012B2288521C22802A4600F0C7FA18B134
:102CD00000F03EFB064605E0208800EB4500208022
:102CE00000E00326304670BD2DE9F0410446088817
:102CF00000270D460A2842D3607826790102A07881
:102D0000227A0843401C1FFA80F8E07846EA002641
:102D10006079731E0102A0790843401C81B2E079FA
:102D20007C2B42EA0022607A28D83AB3792A25D847
:102D3000B0EB420F22D1012304F10A0000F056FA51
:102D400098B900212980172121702988601C491C0D
:102D50002980710000F8011B29880023491C298063
:102D60003246414600F042FA18B100F0F1FA074647
:102D700005E0288800EB4600288000E0032738465D
:102D8000BDE8F08170B50D4640F24804C2F200047F
:102D9000228840F2D431C2F20001401CFDF7F6F95E
:102DA0002088401C2880002070BD38B50988002488
:102DB00005290BD141780A0281781143491C027917
:102DC00089B21AB9C278FF2A03D012B1032420466F
:102DD00038BD00228DF80120C078FF280CD08DF876
:102DE000002001231A46684600F0FBF90028EED0C7
:102DF00000F0AEFA0446EAE701208DF80000F0E7A3
:102E000010B509880024052902D00324204610BDEE
:102E1000417801230A028178C01C1143491C89B200
:102E20001A4600F0E3F90028F0D000F091FA0446C9
:102E3000ECE72DE9F0410D4609880024052926D943
:102E4000417843790A0281781143491C8EB2C178D6
:102E5000027942EA0122510704D0012101EBD2019B
:102E6000C9B201E0C2F3C701571EB7F5F66F0ED223
:102E700099420CD101233146801D00F0B2F918B1FE
:102E800000F066FA044603E00520288000E00324F1
:102E90002046BDE8F08170B50D460988002406295A
:102EA0001DD341780A0281781143C278491C13026C
:102EB000027989B21A434379561E772E0FD85606E7
:102EC000360E9E420BD10123801D00F08FF918B100
:102ED00000F03EFA044603E00520288000E00324C9
:102EE000204670BD2DE9F0411D46069B174606465B
:102EF00059B1F72909D8084640F25C04C2F200042F
:102F0000217100211EB1012E2AD0022558E043F282
:102F1000A112C0F60002226143F2C712C0F60002FD
:102F2000626143F23912C0F60002E26043F2D1025C
:102F3000C0F60002C4E9062143F2E761C0F60001D1
:102F4000216243F29371C0F60001616243F2537152
:102F5000C0F60001A1622A46394600F095F827E044
:102F600042F6E122C0F60002226142F60732C0F6C4
:102F70000002626142F68B22C0F60002E26042F675
:102F80003522C0F60002C4E9062143F29941C0F699
:102F90000001216243F2AD51C0F60001616243F2CB
:102FA0007D51C0F60001A1622A463946FFF723FD94
:102FB000050005D100F064FB28B166710120207086
:102FC0002846BDE8F0810325FAE738B540F25C04F5
:102FD000C2F20004207808B1062038BD684600F02F
:102FE00040FB01284ED19DF8000078B3012802D0A3
:102FF000022847D111E040F26202C2F20002911CA5
:10300000A369C81F984708BB60782179884200D01F
:10301000E0B9022000F03CFB34E0A0680121027816
:10302000A270E170002140F28803C2F2000313F89D
:1030300031507DB195420AD103EBC1014A6840F29B
:103040006201C2F200019047E07003E01AE0491CFF
:103050001029ECDB6078A8B1E07870B10021E18044
:10306000A17841F08002A1680A70E288521C92B2F5
:10307000E2808854E088401CE080D4E90213E288B2
:1030800020799847002038BD70B5084600241546C1
:10309000012181F310880822294600F011FB012844
:1030A00010D1B5F5964F01D9232006E047F6A0715F
:1030B0006800C0F21701B1FBF0F080B200F011FB24
:1030C000012800D00324002080F31088204670BD22
:1030D0002DE9F0410746002516468846012080F379
:1030E000108840F23C04C2F20004A088FF2801D9F5
:1030F000AFF30080A088042807D3A18840F2D42031
:10310000C2F2000000F05CF930B10525002080F328
:1031100010882846BDE8F08140F2D420C2F20000B9
:1031200000783870A088C01E308040F2D520C2F2EE
:103130000000C8F80000E9E770B50346002501204B
:1031400080F3108840F23C04C2F200046078012849
:1031500005D00525002080F31088284670BD491E43
:103160000126A160084666800B7061881144618069
:10317000618800F025F9618840F2D422C2F2000291
:103180005318491C61801870010A60880244401C71
:103190006080117026700121002000F027F9D9E726
:1031A00010B5012080F31088002440F23C00C2F2E8
:1031B000000044702146012000F018F900F056F993
:1031C00084F3108810BD10B5012080F31088002111
:1031D000084600F00BF900F037F9002080F3108862
:1031E00010BD0120704701207047000070B5002518
:1031F00081B38C18072C2ED840F22804C2F20004A8
:103200002488091B40F20C14C2F2000473B1012B94
:1032100022D11CE034F81130521E1B0A00F8013B89
:1032200014F8113000F8013B92B2491C002AF1D188
:1032300012E000BF10F8013B521E1B0224F81130AF
:1032400010F8016B92B2334324F81130491C002A64
:10325000F0D101E0FFE70125284670BD002070474E
:1032600008B5FDF7C9FCFFF7D2F8FEF725FFFEF71A
:103270009AFFFEF7D6FFFFF72FF8FFF7A4F8FFF746
:1032800067F8FEF76EFF002140F2B410C2F20000B2
:10329000FEF791FB40F2FC10C2F20000FEF78EF840
:1032A0003C2140F26C10C2F20000FEF7CEF9002083
:1032B00001224FF4E13311460090FFF713FEFFF7B0
:1032C00030FC40F20C10C2F2000001884288C38832
:1032D000114482881A4411444289114440F2000486
:1032E000C2F200044FF0000AC4F2C82A81466162AB
:1032F000FFF76BFE5146206AFCF7C4FFFDF7A8F804
:10330000A9F80800B9F80430B9F80020B9F80200AB
:10331000B9F80670984615183B44B9F80A602B4472
:103320009919636A9942E3D06425B0FBF5F06162B4
:10333000A280FDF751F86061B8FBF5F0FDF74CF89D
:10334000A061B7FBF5F0FDF747F8E0612670CFE725
:10335000002804D0012803D0072803D00420704798
:10336000022070470620704710B5092801D8303078
:1033700004E0A0F10A01052902D83730C0B210BD1F
:10338000AFF30080002203E010F8013B1A44D2B2F0
:10339000491E89B2F8D25042C0B2704740F2840050
:1033A000C2F200000068004740F27C00C2F2000058
:1033B0000068004740F28000C2F200000068004749
:1033C00070B5FF231A4643F61805C0F6000505F54B
:1033D000807605E010F8014B54402A5D5A40335D79
:1033E000491E89B2F6D242EA032070BD70B54FF48F
:1033F000A0560D46C4F2010640F28C24C2F200042D
:1034000001280CD02068C16821F02001C160012D85
:1034100010D02068C16821F08001C16070BD002219
:1034200080213046FDF7DAFA2168C86840F02000B4
:10343000C860ECE7012280213046FDF7CFFA206812
:10344000C16841F08001E8E710B540F24420C2F2C3
:103450000000FDF7E9FF002140F24420C2F2000025
:10346000026851620068891E016110BD6FF00101A0
:1034700040F24420C2F20000026811610168CA688B
:1034800042F00102CA6000680021416240F244201B
:10349000C2F20000FDF792BFF8B5002740F24C04DD
:1034A000C2F20004207808B1AFF30080684600F053
:1034B000F8F860780025012690B3012802D0022890
:1034C0005AD139E0FFF7D2FF9DF800003A2807D023
:1034D0000D2808D0A0F13001092907D8C8B20DE0A5
:1034E000A570A58048E00220607045E0A0F1410190
:1034F000052902D83738C0B200E0FF20A17811B109
:10350000012939D10DE0A188FF2905D8A288A16839
:1035100000018854A6702FE06570FFF795FF2BE03F
:1035200021E0A288A16811440A7802430A70A088A9
:10353000401CA080A5701FE09DF80000E178884243
:1035400007D1FFF781FF6570012000F0A1F8074661
:1035500012E03A2801D065700EE0A570A580667073
:10356000FFF784FF08E09DF800003A2804D1FFF738
:103570007DFFA580A57066703846F8BD10B540F295
:103580004C00C2F200004178012909D0022907D07D
:103590004178012906D04078022803D0AFF300809B
:1035A00000214170FFF750FF002010BD70B50026CC
:1035B00040F24C04C2F20004607808B1AFF300801E
:1035C0002078002505284AD243F63821C0F60001AC
:1035D000D1E800F03A2000F075F802202070A570C4
:1035E0003DE0E08808B3A17840F24C00C2F2000050
:1035F000C06811B1012932D108E000780009FFF755
:10360000B3FE00F05FF80120A07028E0007800F021
:103610000F00FFF7A9FE00F055F8E068401CE060DD
:10362000A570E088401EE08019E00D2000F04AF807
:103630000320207013E0E07800F044F80420F8E75D
:103640002570032000F024F8064600210120FFF732
:10365000CDFE257003E000210120FFF7C7FE3046B4
:1036600070BD0246002040F20811C2F200014B7802
:10367000002B04D00878107000204870012070479B
:10368000002040F20811C2F200014870012070478A
:10369000012240F20811C2F200014A70087010467F
:1036A000704710B501231A46014640F28C20C2F241
:1036B0000000FEF75BFC08B1002010BD012010BD2A
:1036C0000120704701B501231A46694640F28C205B
:1036D000C2F20000FEF7A1FC08B1002008BD0120E5
:1036E00008BD0120704738B5002540F23C04C2F205
:1036F0000004207808B1AFF300806846FFF7D1FFDF
:10370000607848B140F2D422C2F20002012807D00A
:10371000022810D0032801D1FFF7A8FE284638BDA3
:103720000020A0809DF80000A1880A44491CA180C7
:10373000107002200BE0A088FF2807D89DF8001029
:10374000A0880244401CA0801170E5E7032060704F
:10375000E2E770B5002440F23C05C2F2000568784B
:1037600070B102280BD003280DD0687858B1687862
:10377000022808D06878032805D0AFF30080012024
:10378000FFF786FF0446FFF75FFE012068702046C2
:1037900070BD70B5002540F23C04C2F200046078B0
:1037A000012801D0AFF30080207810B101281CD18E
:1037B00004E000210120FFF719FE16E0608850B1F7
:1037C000A0680078FFF77EFFA068401CA0606088BA
:1037D000401E608009E00320FFF75AFF05460021E4
:1037E0000120FFF703FE00202070284670BD010273
:1037F00002030405060708090A0B0C0D0E0F101032
:103800000000000000000000010203040607080990
:10381000000000000102030400C1814001C080419A
:1038200001C0804100C1814001C0804100C1814090
:1038300000C1814001C0804101C0804100C1814080
:1038400000C1814001C0804100C1814001C0804170
:1038500001C0804100C1814001C0804100C1814060
:1038600000C1814001C0804100C1814001C0804150
:1038700001C0804100C1814000C1814001C0804140
:1038800001C0804100C1814001C0804100C1814030
:1038900000C1814001C0804101C0804100C1814020
:1038A00000C1814001C0804100C1814001C0804110
:1038B00001C0804100C1814000C1814001C0804100
:1038C00001C0804100C1814001C0804100C18140F0
:1038D00000C1814001C0804100C1814001C08041E0
:1038E00001C0804100C1814001C0804100C18140D0
:1038F00000C1814001C0804101C0804100C18140C0
:1039000000C1814001C0804100C1814001C08041AF
:1039100001C0804100C1814000C0C101C30302C297
:10392000C60607C705C5C404CC0C0DCD0FCFCE0EFF
:103930000ACACB0BC90908C8D81819D91BDBDA1A6F
:103940001EDEDF1FDD1D1CDC14D4D515D71716D6DF
:10395000D21213D311D1D010F03031F133F3F2324F
:1039600036F6F737F53534F43CFCFD3DFF3F3EFEBF
:10397000FA3A3BFB39F9F83828E8E929EB2B2AEA2F
:10398000EE2E2FEF2DEDEC2CE42425E527E7E6269F
:1039900022E2E323E12120E0A06061A163A3A2620F
:1039A00066A6A767A56564A46CACAD6DAF6F6EAE7F
:1039B000AA6A6BAB69A9A86878B8B979BB7B7ABAEF
:1039C000BE7E7FBF7DBDBC7CB47475B577B7B6765F
:1039D00072B2B373B17170B05090915193535292CF
:1039E00096565797559594549C5C5D9D5F9F9E5E3F
:1039F0005A9A9B5B99595898884849894B8B8A4AAF
:103A00004E8E8F4F8D4D4C8C44848545874746861E
:103A10008242438341818040403A000800000020F8
:103A20000C010000D82900084C3B00080C010020C4
:103A3000EC060000E82900084100073136000000CC
:103A40000000000000000000000000000000000076
:103A50000000000000000000000000000000000066
:103A60000000000000000000010000000100000054
:103A700010000000000000000024F400000000001E
:103A80000000000000000000000000000000000036
:103A900000000000D402002000000000020000002E
:103AA0000000000000000000000000000000000016
:103AB0000000000000000000000000000000000006
:103AC000000000000000000011000000852D00082B
:103AD00004000000872C000803000000292C0008C7
:103AE00010000000972E000806000000012E0008BC
:103AF00017000000E92C000801000000452B000819
:103B000005000000AB2D00080F000000332E000858
:103B100002000000B72B00080000000000000000B9
:103B20000000000000000000000000000000000095
:103B30000000000000000000000000000000000085
:0C3B400000000000000000000000000079
:0400000508000131BD
:00000001FF
